:020000040800F2
:10000000C8060020A5020008451600083D16000895
:100010004116000861030008A9170008000000004D
:100020000000000000000000000000004D16000865
:10003000650300080000000049160008511600087A
:10004000BF020008BF020008BF020008BF0200088C
:10005000BF020008BF020008BF020008BF0200087C
:10006000BF020008BF020008BF020008BF0200086C
:10007000BF020008BF020008BF020008BF0200085C
:10008000BF02000800000000BF020008BF02000815
:10009000BF020008BF020008BF020008BF0200083C
:1000A000BF020008BF020008BF020008BF0200082C
:1000B00069160008BF020008BF020008BF0200085E
:1000C000BF020008BF020008BF020008BF0200080C
:1000D000BF020008BF020008BF020008BF020008FC
:1000E00069030008BF020008BF020008BF02000841
:1000F000BF020008BF020008BF02000800000000A5
:1001000000000000BF02000800000000BF0200085D
:10011000BF02000800000000BF020008BF02000884
:10012000BF020008BF020008BF020008BF020008AB
:10013000BF0200080000000000000000BF0200082D
:10014000BF020008BF02000800000000000000001D
:10015000000000000000000000000000000000009F
:10016000000000000000000000000000BF020008C6
:10017000BF020008000000000000000000000000B6
:1001800000000000BF0200080000000000000000A6
:10019000000000000000000000000000000000005F
:1001A0000000000000000000BF020008BF020008BD
:1001B000BF020008BF020008BF02000800000000E4
:1001C00000000000BF020008000000000000000066
:1001D000BF020008BF02000800F002F800F052F869
:1001E00014A696E8000CB244B344DA4501D100F0FD
:1001F00049F8BAE80F000FA696E83000A5EB040511
:1002000004EB0607AAEB0704A7F101074FEA15154F
:100210004FEA3414A4F10104AC4201D300F032F8E7
:1002200013F0010F18BFFB1A43F0010300F001F8AF
:10023000DBE718475C1700007C170000103A24BF6A
:1002400078C878C1FAD8520724BF30C830C144BF3B
:1002500004680C6070470000704700000023002411
:1002600000250026103A28BF78C1FBD8520728BFC6
:1002700030C148BF0B6070471FB501F074FB1FBD54
:1002800010B510BD00F031F81146FFF7F5FF01F091
:100290008DFA00F04FF803B4FFF7F2FF03BC00F053
:1002A00057F800000948804709480047FEE7FEE785
:1002B000FEE7FEE7FEE7FEE7FEE7FEE7FEE7FEE716
:1002C00004480549054A064B7047000055160008CA
:1002D000D9010008C8000020C8060020C80200207C
:1002E000C8020020704770477047754600F02CF830
:1002F000AE4605006946534620F00700854618B013
:1003000020B5FFF7DDFFBDE820404FF000064FF0BD
:1003100000074FF000084FF0000BAC46ACE8C009F6
:10032000ACE8C009ACE8C009ACE8C00921F007019D
:100330008D46704710B50446AFF300802046BDE8F7
:100340001040FFF7A8BF00000048704710000020D1
:1003500001491820ABBEFEE72600020070470000EE
:10036000FEE70000704700004FF4005000F026B890
:10037000B0F5005F18BF7047B0B540F27004C2F22C
:1003800000040120607040F20C00C2F2000001780D
:10039000B1FA81F149090170007818B1BDE8B040A7
:1003A000704700BF4FF0904020210022002500F050
:1003B000EBF82570BDE8B0407047000040F21441F2
:1003C000C4F201010A68024214BF08607047FFF7D7
:1003D000CFBF00002DE9F04F83B00E68002E00F073
:1003E000CF8000F1200241F2004C009200F138472A
:1003F000C4F6000C06224FEAB725604508BF052267
:10040000052D38BF4FEAB722002500274FF000081E
:1004100001920AE00E6808F1010836FA08F207F1C5
:10042000020705F1040500F0AB80012202FA08FE84
:1004300016EA0E09EED0D1F804C003220CF0030B2B
:10044000ABF1010602FA07F4012E6FEA040A11D893
:100450008468CE6804EA0A04BE4034438460446879
:1004600024EA0E06CCF3001404FA08F4264346608E
:1004700006E000BFBBF1030F02D14FF0030B21E0F8
:10048000C6688C6806EA0A06BC402643BBF1020F28
:10049000C66017D16FF00302009B02EA580605F010
:1004A0001C020F2453F806C004FA02FE0C692CEA61
:1004B0000E0C04FA02F242EA0C029A51D1F804C07E
:1004C0000CF0030B02680BFA07F302EA0A021A4364
:1004D0001CF4403F02609DD041F26003C4F202036D
:1004E0001A6840F2004E42F001021A601A68C4F223
:1004F000010E02F001020292029A28F003024FF666
:10050000084C7244CFF6FF7C52F80C3005F00C0614
:100510000F24B440A343019C04FA06F6334342F887
:100520000C30DEF808204B6842EA090640F20C4C19
:10053000DC0258BF22EA0906CEF80860C4F2010CBA
:10054000DCF800209C0242EA090658BF22EA0906AC
:10055000CCF80060DEF804209C0342EA090658BF8C
:1005600022EA0906CEF80460DEF80020DB0342EA46
:10057000090658BF22EA0906CEF800604AE700BF24
:1005800003B0BDE8F08F00001823002A08BF28231D
:10059000C150704740F2C000C2F2000000687047CE
:1005A00040F2000040F2C001C2F20000C2F20001BD
:1005B00040680A68104408607047000080B5032056
:1005C00000F08CF8002000F009F800281CBF012082
:1005D00080BD00F02BF8002080BD0000B0B540F2D7
:1005E0000005C2F200056968F1B1044640F2080056
:1005F000C2F200004FF47A720068B2FBF1F1B0FB76
:10060000F1F000F0F7FC01460F2C4FF001000AD882
:10061000002918BFB0BD4FF0FF302146002200F086
:1006200031F800202C60B0BD0120B0BD82B041F295
:100630005800C4F20200816841F0010181608168C4
:1006400001F0010101910199016841F080510160BF
:10065000006800F080500090009802B000F0D6B81A
:10066000002848BF704700F01F01012202FA01F183
:100670001C2202EAD0004EF20012CEF2000281509B
:100680007047000010B54EF60C5CCEF2000CDCF8A2
:100690000030C3F3022E8EF00704042C28BF04247C
:1006A000BEF103034FF0FF3E0EFA04F438BF0023FF
:1006B000A14399400EFA03F39A43114300F00F024D
:1006C00000F160430901043A03F5644362440028E1
:1006D00048BF02F10C03197010BD00004EF60C511A
:1006E000CEF200010A684FF6FF031A4060F30A22B7
:1006F00042F0806040F0FD700860704747F21401DE
:10070000C4F2000151F8142CB0F5007F3CD0002851
:1007100074D1C86E02F4C06220F48070B2F5806FAC
:10072000C8662FD151F8140C012262F34A2041F817
:10073000140C40F20800C2F200000068322250435C
:100740004DF68362C4F21B32A0FB0202900C00BF84
:100750000A68520511D5421C0FD00A6852050CD503
:1007600058B10A68520508D5012806D00A68520512
:1007700003D50228A0F10400EAD10868400544BF6F
:100780000320704700207047C86E02F4C06240F436
:100790008070B2F5806FC866F4D151F8140C012254
:1007A00062F34A2041F8140C40F20800C2F2000043
:1007B0000068322250434DF68362C4F21B32A0FB24
:1007C0000202900C0A68520511D5421C0FD00A682B
:1007D00052050CD558B10A68520508D5012806D033
:1007E0000A68520503D50228A0F10400EAD108687E
:1007F000400544BF03207047C4E700BF022060F3F8
:100800004A2241F8142C00207047000047F20800EB
:10081000C4F20000016841F48041016070470000AB
:100820002DE9F047002863D042F2000AC4F2020A20
:100830000446DAF800000D4600F00F0081420CD9A2
:10084000DAF8000020F00F002843CAF80000DAF8B8
:10085000000000F00F00A8424AD1216841F20808C8
:10086000C807C4F2020803D1880740F1D080B5E080
:10087000606858F8082C022838D003283CD192012F
:1008800036D5D8F80420D8F8043042F20046C3F335
:10089000031302F00302D8F804700133C0F2F40627
:1008A000032A04BF43F20066C0F26E16B6FBF3F2F1
:1008B000D8F80430C7F306277A43C3F3416302270D
:1008C00007EB4303B2FBF3F24BF20043C0F2C44325
:1008D0009A4259D9D8F8002012F0F00F49D0890770
:1008E00052D5A16800294FD143E000BF910305D440
:1008F0000120BDE8F08700BF5105F9D5D8F80010F8
:1009000001F00C0104293FD0D8F8001001F00C01CF
:10091000082939D0D8F8001001F00C010C2933D186
:10092000D8F80410D8F8042042F20047C2F30312AA
:1009300001F00301D8F804300132C0F2F4070329B2
:1009400004BF43F20067C0F26E17B7FBF2F1D8F8AC
:100950000420C3F306235943C2F34162022303EB8D
:100960004202B1FBF2F14BF20042C0F2C4429142AA
:100970000AD9D8F80010082262F307114FF00109D4
:10098000C8F8001002E000BF4FF00009D8F80010CE
:1009900021F003010843C8F80000FFF7FBFD0646FD
:1009A00041F28837D8F80000616800F00C00B0EB25
:1009B000810F07D0FFF7EEFD801BB842F2D903206C
:1009C000BDE8F0872168880708D4B9F1000F1ED070
:1009D000D8F8000020F0F00017E000BF480705D568
:1009E000D8F8000040F4E060C8F80000080706D519
:1009F000D8F80000072262F30D20C8F80000D8F8EC
:100A00000000A26820F0F0001043C8F80000DAF8F7
:100A1000000000F00F0085421BD2DAF8000020F041
:100A20000F002843CAF80000FFF7B4FD064641F264
:100A3000883700BFDAF8000000F00F00A84207D0A6
:100A4000FFF7A8FD801BB842F4D90320BDE8F0876A
:100A50002168480707D5D8F80000E26820F4E06074
:100A60001043C8F80000080708D5D8F8000021692D
:100A700020F4605040EAC100C8F80000D8F8000037
:100A800042F20041C0F2F40100F00C0004280846D4
:100A90002DD0D8F8000000F00C00082843F20060C8
:100AA000C0F26E1023D0D8F8002002F00C020C2AFD
:100AB0001CD1D8F80420D8F8043002F00302C3F3A4
:100AC0000313D8F804700133032A08BF0146B1FBB1
:100AD000F3F0D8F80410C7F30627C1F341610222EE
:100AE000784302EB4101B0FBF1F000E00020D8F8C0
:100AF000001041F68012C1F30311C0F60002515CF0
:100B000040F2080201F01F0120FA01F140F200005A
:100B1000C2F200000068C2F200021160BDE8F047B6
:100B2000FFF75CBD002804BF012070472DE9F041AC
:100B300082B00446007841F20006C007C4F2020603
:100B40001ED1207880073DD42078000764D4207817
:100B5000400700F187802078800600F1D980E569A0
:100B6000002D00F04282B06800F00C000C2840F02C
:100B70003181012D40F08E81012002B0BDE8F0816D
:100B8000B06800F00C01F068082961D0032281F000
:100B90000C0122EA00000844B0FA80F0400957D165
:100BA00061683068B1F5803F07D0B1F5A02F40F003
:100BB000E38040F480203060306840F48030306062
:100BC000E4E000BFB068F16800F00C00042871D0C8
:100BD00001F0030180F00C0081F002010844B0FA3A
:100BE00080F0400966D1E1683068002900F0E080BB
:100BF00040F480703060FFF7CDFC0546306840055A
:100C000000F10A81FFF7C6FC401B0228F6D9032039
:100C100002B0BDE8F08100BF6169D6F894000029F8
:100C200000F0948040F00100C6F89400FFF7B2FC99
:100C3000054600BFD6F8940080073FF588AFFFF760
:100C4000A9FC401B0228F5D9032002B0BDE8F081C1
:100C5000306880037FF575AF606800287FF471AF5E
:100C60003EE000BFB06D5FEAC00808D4B06D40F050
:100C70008050B065B06D00F080500190019847F24F
:100C80000007C4F200073868C0052DD4386840F466
:100C900080703860FFF77EFC054600BF3868C005ED
:100CA00022D4FFF777FC401B0228F7D9032002B0BB
:100CB000BDE8F0813068400501D5E06880B170681A
:100CC000216920F0FE4040EA0160706040F20000BF
:100CD000C2F200000068FFF781FC00283FF434AF47
:100CE000012002B0BDE8F081A168D6F8900001298A
:100CF00008D0052940F0AE8040F00400C6F890000E
:100D0000D6F8900040F00100C6F89000AEE000BFB9
:100D1000A169D6F89800002900F0868040F0010013
:100D2000C6F89800FFF736FC054600BFD6F89800D5
:100D300080073FF514AFFFF72DFC401B02284FF052
:100D40000300F3D902B0BDE8F08100BF20F001003C
:100D5000C6F89400FFF71EFC054600BFD6F89400C5
:100D600080077FF5F4AEFFF715FC401B0228F5D98C
:100D7000032002B0BDE8F08120F48030306030689C
:100D8000002920F48020306000F0BE80FFF702FCD4
:100D9000054600BF306880033FF5D3AEFFF7FAFB8E
:100DA000401B6428F6D9032002B0BDE8F08100BFE3
:100DB00020F480703060FFF7EDFB05463068400599
:100DC0007FF5C2AEFFF7E6FB401B02284FF00300A1
:100DD000F4D9B7E7306820F080703060FFF7DAFBB5
:100DE000022D05460CD100BF3068800140F1B8806B
:100DF000FFF7D0FB401B02284FF00300F4D9A1E716
:100E00003068800140F1EA80FFF7C4FB401B0228F4
:100E10004FF00300F4D995E77068216920F0FE4097
:100E200040EA016070608FE620F00100C6F898008B
:100E3000FFF7B0FB054600BFD6F8980080077FF5A6
:100E40008EAEFFF7A7FB401B02284FF00300F3D93B
:100E500078E700BF20F00100C6F89000D6F89000B7
:100E6000002920F00400C6F890005DD0FFF792FB47
:100E7000054641F2883700BFD6F89000800765D458
:100E8000FFF788FB401BB842F6D9032002B0BDE84B
:100E9000F08100BFF068216A00F003028A427FF40B
:100EA0001FAF626A6FF00F0300F0F00103EB021254
:100EB00091427FF415AFA16A00F4FE42B2EB012F1C
:100EC0007FF40EAFE16A00F07842B2EBC16F7FF4BD
:100ED00007AF226B0023CFF6E07303EA025200F45F
:100EE000C001A2F5001291427FF4FAAE616B4FF09F
:100EF0007E4202EA016100F0C06001F17E41884259
:100F00007FF4EEAE71E000BFFFF744FB054600BF83
:100F1000306880037FF515AEFFF73CFB401B64286B
:100F20004FF00300F4D90DE7FFF734FB054641F21B
:100F3000883700BFD6F89000800707D5FFF72AFB57
:100F4000401BB8424FF00300F4D9FBE6B8F1000FA4
:100F50003FF501AEB06D20F08050B065FBE500BFFD
:100F6000F06848F20C01C0F29F1104F1200700EA7A
:100F7000010C8ECF6FF00F00D4E90C5400EB02107F
:100F80000022CFF6E07241EA0C0102EA0552084362
:100F9000A2F500124FF07E4540EA032005EA046501
:100FA000104305F17E4540EAC7602843F060306891
:100FB00040F080703060F06840F08070F060FFF7C3
:100FC000E9FA0446306880010FD4FFF7E3FA001B0A
:100FD00002284FF00300F5D9B4E600BFF0684FF6E1
:100FE000FC71CFF6EE610840F060002002B0BDE871
:100FF000F0810000411E0020B0EB116F1CBF0120EA
:1010000070474EF21002CEF2000251604EF62351AC
:10101000CEF20001F0230B70072190601160704741
:1010200070470000704700007047000070470000E4
:10103000704700007047000090F83C20012A4FF0F4
:1010400002024AD070B580F83D20026843F2004C9D
:1010500054689368C4F2010C42F6004E6245C4F233
:10106000010E01D0724503D14D6824F470042C4365
:101070004FF68F75CFF6FF550E682C4042F6FF35C0
:10108000C4F201053443AA4254600FDCB2F1804F30
:1010900016D040F20046C4F20006B24210D040F62C
:1010A0000006C4F20006B2420AD00EE0724507D034
:1010B00044F20006C4F20106B24201D0624504D1F6
:1010C000896823F08003194391600121002280F890
:1010D0003D1080F83C20BDE870401046704700008D
:1010E00070470000002804BF0120704710B5044677
:1010F00090F83D0028B9002084F83C00204600F01C
:1011000023F8022084F83D002068211D00F0B2FA87
:10111000012084F8480084F83E0084F83F0084F8F9
:10112000400084F8410084F8420084F8430084F8C9
:10113000440084F8450084F8460084F8470084F8A9
:101140003D00002010BD00000068B0F1804F18BFC6
:10115000704780B582B041F25800C4F202000168C5
:10116000002241F0010101600068002100F001004F
:10117000019001981C20FFF785FA1C2002B0BDE801
:101180008040FFF76DBA000090F83D1001291DD195
:10119000022180F83D10016842F6FF32C868C4F2AF
:1011A0000102914240F00100C86011DCB1F1804FB2
:1011B00020D040F20040C4F2000081421AD040F634
:1011C0000000C4F20000814214D020E001207047EA
:1011D00042F60040C4F2010081420BD044F200000C
:1011E000C4F20100814205D043F20040C4F2010084
:1011F00081420CD188680722C0F201020240062A0F
:101200004FF00000E3D0B2F5803F08BF7047086898
:1012100040F00100086000207047000090F83C207A
:10122000012A4FF0020200F0AC8080B580F83D202A
:10123000D0F800C08822DCF80830CFF6CE721A4011
:10124000CCF808200B686F2B10DD1F22C0F21002B3
:10125000934237DCB3F5005F6EDA702B00F0B68096
:10126000B3F5805F00F08480D8E000BF2F2B35DD20
:101270004F2B39DC302B6FD0402B40F0CF80D1F892
:1012800004E0C968DCF82030DCF8202022F00102FC
:10129000CCF82020DCF8182022F0F00242EA0111FC
:1012A00023F00A0242EA0E02CCF81810CCF82020F3
:1012B000DCF808104FF68872CFF6CF721140473134
:1012C00054E000BF3F21C0F210018B423ADC2021E4
:1012D000C0F210018B423FD0302139E0E3B3102B34
:1012E0003AD0202B38D099E0502B4DD0602B40F0D5
:1012F0009580D1F804E0C968DCF82030DCF82020C3
:1013000022F01002CCF82020DCF8182022F47042E1
:1013100042EA013123F0A00242EA0E12CCF8181082
:10132000CCF82020DCF808104FF68872CFF6CF7288
:10133000114067311AE000BF5CD0B3F1101F0BD031
:101340006CE000BF4021C0F210018B4204D070213C
:10135000C0F210018B4261D1DCF808104FF68872A0
:10136000CFF6CF721140194341F00701CCF80810B5
:101370000022012180F83D10002180F83C10BDE8DA
:1013800080401046704700BFD1F804E0C968DCF81F
:101390002030DCF8202022F00102CCF82020DCF8FC
:1013A000182022F0F00242EA011123F00A0242EA78
:1013B0000E02CCF81810CCF82020DCF808104FF6FC
:1013C0008872CFF6CF7211405731CFE7D1E901E3F0
:1013D000C968DCF8082043EA0E0322F47F4243EA9E
:1013E00001211143CCF80810DCF8081041F0770116
:1013F000BCE700BFD1E901E3C968DCF8082043EA93
:101400000E0322F47F4243EA01211143CCF8081075
:10141000DCF8081041F48041A8E700BF0122A8E7EA
:1014200070470000F0B581B004460068C5680669E1
:10143000B10717D515F0020114D06FF00201016158
:10144000012121778069800704D02046FFF7E8FF5B
:1014500006E000BF204600F0CBF8204600F0CAF8B6
:1014600000202077700719D515F0040016D02068E9
:101470006FF00401016102212177806910F4407F3F
:1014800004D02046FFF7CCFF06E000BF204600F066
:10149000AFF8204600F0AEF800202077300717D5CF
:1014A00015F0080014D020686FF0080101610421D4
:1014B0002177C069800703D02046FFF7B1FF05E020
:1014C000204600F095F8204600F094F800202077A0
:1014D000F00619D515F0100016D020686FF0100135
:1014E000016108212177C06910F4407F04D02046B3
:1014F000FFF796FF06E000BF204600F079F820468F
:1015000000F078F800202077F00718BF15F00100F0
:1015100006D020686FF001010161204600F06CF8F0
:1015200016F4025F05F0800718BF002F02D1F00506
:1015300009D410E020686FF4025101612046FFF7E2
:1015400071FDF00507D537B120686FF48071016136
:101550002046FFF765FD700609D515F0400006D05E
:1015600020686FF040010161204600F065F8B00688
:1015700009D515F0200006D020686FF02001016128
:101580002046FFF751FDF00209D515F4801006D072
:1015900020686FF4801101612046FFF749FDB00219
:1015A00009D515F4001006D020686FF40011016110
:1015B0002046FFF73BFD700209D515F4800006D0E8
:1015C00020686FF4800101612046FFF733FD30028F
:1015D0000CD515F4000009D021686FF400022046F4
:1015E0000A6101B0BDE8F040FFF77ABD01B0F0BD7F
:1015F00070470000704700000068B0F1804F18BFCE
:10160000704740F20C00C2F20000007890B140F246
:101610007000C2F200000178B1FA81F1490901704D
:1016200002784FF090402021002A18BF0122FEF7D7
:10163000ABBF00BF7047000070470000FEE700002E
:10164000FEE70000FEE70000704700007047000062
:10165000FEF7A6BF4EF68850CEF20000016841F4B6
:10166000700101607047000040F27400C2F2000097
:10167000FFF7D8BE40F2FF7C0268C4F2000C604560
:1016800024DD40F60003C4F20003984227D043F261
:101690000043C4F20103984221D042F60043C4F251
:1016A000010398421BD043F2FF33C4F20103984276
:1016B0001FDC604530DCB0F1804F47D040F2004382
:1016C000C4F20003984241D044E000BFB0F1804F23
:1016D00005D040F20043C4F200039842E3D14B68C6
:1016E00022F070021A4343F2FF33C4F2010398421E
:1016F000DFDD44F2FF33C4F2010398421ADC43F207
:101700000043C4F20103984220D044F20003C4F223
:10171000010398421AD01DE040F60003C4F2000312
:10172000984213D042F60043C4F2010398420DD010
:1017300010E000BF44F60003C4F20103984205D054
:1017400044F20043C4F20103984203D1CB6822F46F
:1017500040721A4380B54B6922F0800E8A6843EAD2
:101760000E03D1F800C00360C262A0F18042A2F56E
:1017700096324FEAB222072AC0F828C0BDE880405E
:1017800007D8012303FA02F212F0E50F1CBF096922
:101790000163012141610169C90708BF70470169FF
:1017A00021F0010101617047FEE7000094B0FEF7EF
:1017B00005FF00240020CDE90B44CDE90944CDE923
:1017C0000744FEF79BFF4FF48071099140210A9175
:1017D000042102200F9155210690CDE90D00CDE99D
:1017E0001010CDE9120006A8FFF79CF920B1EFF325
:1017F000108072B6FEE700BF0F2001900320CDE9F4
:10180000020401A80421CDE90444FFF709F828B136
:10181000EFF3108072B600BFFEE700BF002541F273
:101820004C000A95CDE90855CDE90655C4F20200F1
:101830000168002241F0040101600168202601F0E6
:10184000040101910199016841F0200101600168E2
:1018500001F0200101910199016841F0010101604D
:10186000016801F0010101910199016841F0020153
:1018700001600068202100F00200019001984FF003
:101880009040FEF781FE4FF4005006904FF4041094
:10189000CDE9070540F6000006ACC4F6000021467D
:1018A000FEF798FD0C2002210690CDE90715CDE941
:1018B00009504FF090402146FEF78CFD0120CDE904
:1018C00007054FF09040214606960995FEF782FDE8
:1018D000282000210022FEF7D5FE2820FEF7C0FEBA
:1018E00040F27400C2F200004FF0804141F28733B1
:1018F0000995CDE90755029544F2672280E8260054
:10190000C0E903358561FFF7EDFB28B1EFF31080E7
:1019100072B600BFFEE700BF4FF48050069040F261
:101920007400C2F2000006A9FFF778FC20B1EFF3C3
:10193000108072B6FEE700BF00200190039040F2D5
:101940007400C2F2000001A9FFF776FB20B1EFF3AB
:10195000108072B6FEE700BF40F27400C2F20000D1
:10196000FFF712FCFEE7F1EE100A4FF6FF71C0F22E
:10197000C03120EA010040F04070E1EE100A7047EB
:10198000000000000000000001020304060708092F
:10199000B019000800000020100000003C02000800
:1019A000C019000810000020B80600005C02000802
:1019B00010000000010000000024F40001000000FD
:04000005080001D915
:00000001FF
