:020000040800F2
:10000000F8060020A5020008411000083910000879
:100010003D100008AD0300081911000800000000A1
:10002000000000000000000000000000491000086F
:10003000B103000800000000451000084D10000842
:10004000BF020008BF020008BF020008BF0200088C
:10005000BF020008BF020008BF020008BF0200087C
:10006000BF020008BF020008BF020008BF0200086C
:10007000BF020008BF020008BF020008BF0200085C
:10008000BF02000800000000BF020008BF02000815
:10009000BF020008BF020008BF020008BF0200083C
:1000A000BF020008BF020008BF020008BF0200082C
:1000B000BF020008BF020008BF020008BF0200081C
:1000C000BF020008BF020008BF020008BF0200080C
:1000D000BF020008BF020008BF020008BF020008FC
:1000E000B5030008BF020008BF020008BF020008F5
:1000F000BF020008BF020008BF02000800000000A5
:1001000000000000BF02000800000000BF0200085D
:10011000BF02000800000000BF020008BF02000884
:10012000BF020008BF020008BF020008BF020008AB
:10013000BF0200080000000000000000BF0200082D
:10014000BF020008BF02000800000000000000001D
:10015000000000000000000000000000000000009F
:10016000000000000000000000000000BF020008C6
:10017000BF020008000000000000000000000000B6
:1001800000000000BF0200080000000000000000A6
:10019000000000000000000000000000000000005F
:1001A0000000000000000000BF020008BF020008BD
:1001B000BF020008BF020008BF02000800000000E4
:1001C00000000000BF020008000000000000000066
:1001D000BF020008BF02000800F002F800F052F869
:1001E00014A696E8000CB244B344DA4501D100F0FD
:1001F00049F8BAE80F000FA696E83000A5EB040511
:1002000004EB0607AAEB0704A7F101074FEA15154F
:100210004FEA3414A4F10104AC4201D300F032F8E7
:1002200013F0010F18BFFB1A43F0010300F001F8AF
:10023000DBE71847C8120000E8120000103A24BF9C
:1002400078C878C1FAD8520724BF30C830C144BF3B
:1002500004680C6070470000704700000023002411
:1002600000250026103A28BF78C1FBD8520728BFC6
:1002700030C148BF0B6070471FB501F02AF91FBDA0
:1002800010B510BD00F058F81146FFF7F5FF00F06B
:1002900045FF00F076F803B4FFF7F2FF03BC00F06F
:1002A0007DF800000948804709480047FEE7FEE75F
:1002B000FEE7FEE7FEE7FEE7FEE7FEE7FEE7FEE716
:1002C00004480549054A064B7047000061100008C4
:1002D000D9010008F8000020F8060020F8020020EC
:1002E000F80200204FF0000200B5134694469646EF
:1002F000203922BFA0E80C50A0E80C50B1F1200139
:10030000BFF4F7AF090728BFA0E80C5048BF0CC0E6
:100310005DF804EB890028BF40F8042B08BF704744
:1003200048BF20F8022B11F0804F18BF00F8012BB6
:100330007047704770477047754600F02BF8AE461F
:1003400005006946534620F00700854618B020B5E1
:10035000FFF7B6FFBDE820404FF000064FF0000762
:100360004FF000084FF0000BAC46ACE8C009ACE819
:10037000C009ACE8C009ACE8C00921F007018D460E
:10038000704710B50446AFF300802046BDE810402A
:10039000FFF781BF00487047100000200149182076
:1003A000ABBEFEE72600020070470000FEE700003B
:1003B000704700004FF4005000F00CB8B0F5005F3B
:1003C00018BF704740F27300C2F2000001210170B3
:1003D0007047000040F21441C4F201010A68024271
:1003E00014BF08607047FFF7E9BF00002DE9F04F28
:1003F00083B00E68002E00F0CF8000F1200241F2A1
:10040000004C009200F13847C4F6000C06224FEA77
:10041000B725604508BF0522052D38BF4FEAB72232
:10042000002500274FF0000801920AE00E6808F14D
:10043000010836FA08F207F1020705F1040500F099
:10044000AB80012202FA08FE16EA0E09EED0D1F8BE
:1004500004C003220CF0030BABF1010602FA07F40F
:10046000012E6FEA040A11D88468CE6804EA0A04EF
:10047000BE4034438460446824EA0E06CCF3001482
:1004800004FA08F42643466006E000BFBBF1030F00
:1004900002D14FF0030B21E0C6688C6806EA0A0619
:1004A000BC402643BBF1020FC66017D16FF00302B8
:1004B000009B02EA580605F01C020F2453F806C000
:1004C00004FA02FE0C692CEA0E0C04FA02F242EA6B
:1004D0000C029A51D1F804C00CF0030B02680BFA1D
:1004E00007F302EA0A021A431CF4403F02609DD05F
:1004F00041F26003C4F202031A6840F2004E42F077
:1005000001021A601A68C4F2010E02F0010202929E
:10051000029A28F003024FF6084C7244CFF6FF7C93
:1005200052F80C3005F00C060F24B440A343019C94
:1005300004FA06F6334342F80C30DEF808204B6824
:1005400042EA090640F20C4CDC0258BF22EA0906D6
:10055000CEF80860C4F2010CDCF800209C0242EAEC
:10056000090658BF22EA0906CCF80060DEF804202C
:100570009C0342EA090658BF22EA0906CEF8046045
:10058000DEF80020DB0342EA090658BF22EA09062A
:10059000CEF800604AE700BF03B0BDE8F08F00006E
:1005A0001823002A08BF2823C150704740F2F400E6
:1005B000C2F200000068704740F2000040F2F4010F
:1005C000C2F20000C2F2000140680A6810440860EC
:1005D0007047000080B5032000F08CF8002000F088
:1005E00009F800281CBF012080BD00F02BF8002076
:1005F00080BD0000B0B540F20005C2F20005696898
:10060000F1B1044640F20800C2F200004FF47A72E1
:100610000068B2FBF1F1B0FBF1F000F0F7FC01462D
:100620000F2C4FF001000AD8002918BFB0BD4FF0C1
:10063000FF302146002200F031F800202C60B0BDD0
:100640000120B0BD82B041F25800C4F202008168BE
:1006500041F001018160816801F00101019101997E
:10066000016841F080510160006800F08050009006
:10067000009802B000F0D6B8002848BF704700F0DC
:100680001F01012202FA01F11C2202EAD0004EF2FF
:100690000012CEF2000281507047000010B54EF6F5
:1006A0000C5CCEF2000CDCF80030C3F3022E8EF0AE
:1006B0000704042C28BF0424BEF103034FF0FF3EBF
:1006C0000EFA04F438BF0023A14399400EFA03F355
:1006D0009A43114300F00F0200F160430901043A0C
:1006E00003F564436244002848BF02F10C0319700B
:1006F00010BD00004EF60C51CEF200010A684FF614
:10070000FF031A4060F30A2242F0806040F0FD705F
:100710000860704747F21401C4F2000151F8142C2C
:10072000B0F5007F3CD0002874D1C86E02F4C062DE
:1007300020F48070B2F5806FC8662FD151F8140C88
:10074000012262F34A2041F8140C40F20800C2F280
:1007500000000068322250434DF68362C4F21B321F
:10076000A0FB0202900C00BF0A68520511D5421C82
:100770000FD00A6852050CD558B10A68520508D541
:10078000012806D00A68520503D50228A0F104000A
:10079000EAD10868400544BF032070470020704735
:1007A000C86E02F4C06240F48070B2F5806FC86613
:1007B000F4D151F8140C012262F34A2041F8140CD0
:1007C00040F20800C2F200000068322250434DF6A9
:1007D0008362C4F21B32A0FB0202900C0A6852052D
:1007E00011D5421C0FD00A6852050CD558B10A68C1
:1007F000520508D5012806D00A68520503D50228FB
:10080000A0F10400EAD10868400544BF0320704706
:10081000C4E700BF022060F34A2241F8142C0020F4
:100820007047000047F20800C4F20000016841F47C
:1008300080410160704700002DE9F047002863D037
:1008400042F2000AC4F2020A0446DAF800000D4639
:1008500000F00F0081420CD9DAF8000020F00F0000
:100860002843CAF80000DAF8000000F00F00A842A0
:100870004AD1216841F20808C807C4F2020803D12E
:10088000880740F1D080B5E0606858F8082C02284D
:1008900038D003283CD1920136D5D8F80420D8F8B6
:1008A000043042F20046C3F3031302F00302D8F807
:1008B00004700133C0F2F406032A04BF43F2006659
:1008C000C0F26E16B6FBF3F2D8F80430C7F3062771
:1008D0007A43C3F34163022707EB4303B2FBF3F20E
:1008E0004BF20043C0F2C4439A4259D9D8F80020D1
:1008F00012F0F00F49D0890752D5A16800294FD1D5
:1009000043E000BF910305D40120BDE8F08700BF9C
:100910005105F9D5D8F8001001F00C0104293FD099
:10092000D8F8001001F00C01082939D0D8F80010CF
:1009300001F00C010C2933D1D8F80410D8F80420A8
:1009400042F20047C2F3031201F00301D8F8043069
:100950000132C0F2F407032904BF43F20067C0F27A
:100960006E17B7FBF2F1D8F80420C3F306235943FE
:10097000C2F34162022303EB4202B1FBF2F14BF2FC
:100980000042C0F2C44291420AD9D8F800100822AD
:1009900062F307114FF00109C8F8001002E000BF30
:1009A0004FF00009D8F8001021F003010843C8F8FF
:1009B0000000FFF7FBFD064641F28837D8F800003B
:1009C000616800F00C00B0EB810F07D0FFF7EEFD7F
:1009D000801BB842F2D90320BDE8F0872168880760
:1009E00008D4B9F1000F1ED0D8F8000020F0F000B4
:1009F00017E000BF480705D5D8F8000040F4E060D4
:100A0000C8F80000080706D5D8F80000072262F3EE
:100A10000D20C8F80000D8F80000A26820F0F0000F
:100A20001043C8F80000DAF8000000F00F0085421B
:100A30001BD2DAF8000020F00F002843CAF80000AB
:100A4000FFF7B4FD064641F2883700BFDAF8000030
:100A500000F00F00A84207D0FFF7A8FD801BB842A6
:100A6000F4D90320BDE8F0872168480707D5D8F8F6
:100A70000000E26820F4E0601043C8F800000807B6
:100A800008D5D8F80000216920F4605040EAC10080
:100A9000C8F80000D8F8000042F20041C0F2F401AA
:100AA00000F00C00042808462DD0D8F8000000F013
:100AB0000C00082843F20060C0F26E1023D0D8F872
:100AC000002002F00C020C2A1CD1D8F80420D8F81F
:100AD000043002F00302C3F30313D8F804700133A7
:100AE000032A08BF0146B1FBF3F0D8F80410C7F39E
:100AF0000627C1F341610222784302EB4101B0FBBA
:100B0000F1F000E00020D8F8001041F2EC42C1F30F
:100B10000311C0F60002515C40F2080201F01F010F
:100B200020FA01F140F20000C2F200000068C2F2B7
:100B300000021160BDE8F047FFF75CBD002804BF6C
:100B4000012070472DE9F04182B00446007841F25F
:100B50000006C007C4F202061ED1207880073DD4EB
:100B60002078000764D42078400700F1878020783F
:100B7000800600F1D980E569002D00F04282B0685E
:100B800000F00C000C2840F03181012D40F08E81E6
:100B9000012002B0BDE8F081B06800F00C01F068FF
:100BA000082961D0032281F00C0122EA00000844E8
:100BB000B0FA80F0400957D161683068B1F5803FE4
:100BC00007D0B1F5A02F40F0E38040F480203060E2
:100BD000306840F480303060E4E000BFB068F16815
:100BE00000F00C00042871D001F0030180F00C002B
:100BF00081F002010844B0FA80F0400966D1E16852
:100C00003068002900F0E08040F480703060FFF729
:100C1000CDFC05463068400500F10A81FFF7C6FCAF
:100C2000401B0228F6D9032002B0BDE8F08100BFC6
:100C30006169D6F89400002900F0948040F001002A
:100C4000C6F89400FFF7B2FC054600BFD6F8940042
:100C500080073FF588AFFFF7A9FC401B0228F5D9B4
:100C6000032002B0BDE8F081306880037FF575AFE6
:100C7000606800287FF471AF3EE000BFB06D5FEAAE
:100C8000C00808D4B06D40F08050B065B06D00F081
:100C900080500190019847F20007C4F200073868BD
:100CA000C0052DD4386840F480703860FFF77EFCB2
:100CB000054600BF3868C00522D4FFF777FC401B0B
:100CC0000228F7D9032002B0BDE8F0813068400562
:100CD00001D5E06880B17068216920F0FE4040EAEB
:100CE0000160706040F20000C2F200000068FFF78F
:100CF00081FC00283FF434AF012002B0BDE8F08150
:100D0000A168D6F89000012908D0052940F0AE80EE
:100D100040F00400C6F89000D6F8900040F00100C2
:100D2000C6F89000AEE000BFA169D6F8980000298F
:100D300000F0868040F00100C6F89800FFF736FC0E
:100D4000054600BFD6F8980080073FF514AFFFF7BF
:100D50002DFC401B02284FF00300F3D902B0BDE880
:100D6000F08100BF20F00100C6F89400FFF71EFCE0
:100D7000054600BFD6F8940080077FF5F4AEFFF774
:100D800015FC401B0228F5D9032002B0BDE8F08114
:100D900020F4803030603068002920F480203060FA
:100DA00000F0BE80FFF702FC054600BF30688003FC
:100DB0003FF5D3AEFFF7FAFB401B6428F6D90320BA
:100DC00002B0BDE8F08100BF20F480703060FFF712
:100DD000EDFB0546306840057FF5C2AEFFF7E6FB48
:100DE000401B02284FF00300F4D9B7E7306820F029
:100DF00080703060FFF7DAFB022D05460CD100BF92
:100E00003068800140F1B880FFF7D0FB401B02281A
:100E10004FF00300F4D9A1E73068800140F1EA8087
:100E2000FFF7C4FB401B02284FF00300F4D995E7FD
:100E30007068216920F0FE4040EA016070608FE632
:100E400020F00100C6F89800FFF7B0FB054600BF90
:100E5000D6F8980080077FF58EAEFFF7A7FB401B02
:100E600002284FF00300F3D978E700BF20F001001B
:100E7000C6F89000D6F89000002920F00400C6F8CB
:100E800090005DD0FFF792FB054641F2883700BF26
:100E9000D6F89000800765D4FFF788FB401BB84266
:100EA000F6D9032002B0BDE8F08100BFF068216AE6
:100EB00000F003028A427FF41FAF626A6FF00F03F3
:100EC00000F0F00103EB021291427FF415AFA16A2A
:100ED00000F4FE42B2EB012F7FF40EAFE16A00F0A6
:100EE0007842B2EBC16F7FF407AF226B0023CFF6DD
:100EF000E07303EA025200F4C001A2F5001291422D
:100F00007FF4FAAE616B4FF07E4202EA016100F0BD
:100F1000C06001F17E4188427FF4EEAE71E000BF17
:100F2000FFF744FB054600BF306880037FF515AE30
:100F3000FFF73CFB401B64284FF00300F4D90DE79A
:100F4000FFF734FB054641F2883700BFD6F8900022
:100F5000800707D5FFF72AFB401BB8424FF003007C
:100F6000F4D9FBE6B8F1000F3FF501AEB06D20F00B
:100F70008050B065FBE500BFF06848F20C01C0F29C
:100F80009F1104F1200700EA010C8ECF6FF00F00D3
:100F9000D4E90C5400EB02100022CFF6E07241EAD3
:100FA0000C0102EA05520843A2F500124FF07E45FB
:100FB00040EA032005EA0465104305F17E4540EA56
:100FC000C7602843F060306840F080703060F0689F
:100FD00040F08070F060FFF7E9FA04463068800165
:100FE0000FD4FFF7E3FA001B02284FF00300F5D9F6
:100FF000B4E600BFF0684FF6FC71CFF6EE61084032
:10100000F060002002B0BDE8F0810000411E002029
:10101000B0EB116F1CBF012070474EF21002CEF2F0
:10102000000251604EF62351CEF20001F0230B7006
:101030000721906011607047FEE70000FEE70000A6
:10104000FEE70000704700007047000080B5FFF722
:10105000B3FA40F27200C2F200000121017080BDBB
:101060004EF68850CEF20000016841F47001016034
:101070007047000070B540F27004C2F20004E078DE
:10108000F8B1A068216900EB8000C1EB40010022AB
:10109000C929E27038BF70BD40F20C01C2F20001F4
:1010A0000A784500B2FA82F252090A70097839B911
:1010B0004FF09040202100220026FFF771FA2671A0
:1010C000256170BD40F29000C2F20000016801315C
:1010D0000160704740F27000C2F20000C168013147
:1010E0003229C16038BF70470021C16040F20C0155
:1010F000C2F20001097869B10179B1FA81F14909B7
:10110000017102794FF090402021002A18BF01227E
:10111000FFF746BA70470000FEE7000094B0FFF703
:1011200059FA00240020CDE90B44CDE90944CDE96A
:101130000744FFF7EFFA4FF48071099140210A91BB
:10114000042102200F9155210690CDE90D00CDE933
:101150001010CDE9120006A8FFF7F0FC20B1EFF364
:10116000108072B6FEE700BF0F2001904FF0030819
:1011700001A80421CDE90284CDE90444FFF75CFB1A
:1011800020B1EFF3108072B6FEE700BF4FF0000908
:1011900041F24C00CDF82890CDE90899CDE90699A7
:1011A000C4F202000168002241F0040101600168FC
:1011B000202601F0040101910199016841F020010C
:1011C0000160016801F0200101910199016841F07D
:1011D00001010160016801F00101019101990168BB
:1011E00041F0020101600068202100F0020001903E
:1011F00001984FF09040FFF7D3F94FF4005006905C
:101200004FF40410CDE9070940F6000006ACC4F61F
:1012100000002146FFF7EAF80C2006900225CDE9F0
:1012200009904FF090402146CDE90759FFF7DEF8CD
:101230004FF0010A4FF0904021460696CDE907A9EC
:10124000CDF82490FFF7D2F8282000210022FFF7E4
:1012500025FA2820FFF710FA40F2940BC2F2000B97
:1012600058466021FFF73EF840F20800C2F2000045
:10127000006848F21F51C5F2EB11A0FB011041F2CA
:10128000D501C0F60001CBF8081044F24C51C5F668
:10129000447146F642420BF1100CC6F669626B23AC
:1012A0008CE80E0041F27501C0F60001CBF8281061
:1012B00047F24251C7F2744146F66F62CBF83010E4
:1012C00046F66161C4F65F02C6F66441CBE90D21C2
:1012D00046F26C51C0F27201CBF83B1041F2C501ED
:1012E000C0F60001CBF8481045F25F4146F2494292
:1012F000C7F26131C6F26C52CBE914214FF0FF31D5
:1013000040F2700701EB5010C2F20007B0F1807F8D
:10131000C7E90599C7F81C9087F800908BF8025030
:10132000CBF81B908BF820A08BF822A08BF84050B4
:101330008BF84280CBF85B90CBF8583087F801806F
:1013400004D3EFF3108072B6FEE700BF4EF2100137
:10135000CEF2000148604EF62350CEF20000F0229B
:1013600002700722C1F808900A60102101704FF046
:10137000904020210022FFF713F96FF0600811E080
:1013800038780BEB4012114611F8013F002B4BD07F
:1013900079780130B0FBF1F202FB11007969387005
:1013A000481C7861B8780028EAD087F80290B868BD
:1013B0000130B860B969787801310028B961DFD0AF
:1013C00004283BD2002110F00302D9D00BEB4110CE
:1013D0004178022907D1C168BB6899429CBF80F857
:1013E0000190C0F80C90012ACAD090F8211002296F
:1013F00009D100F12001CB68BE68B3429CBF81F8DF
:101400000190C1F80C90022ABAD090F8411002293C
:10141000B6D14030C168BA6891429CBF80F8019053
:10142000C0F80C90ACE700BF906881F800A080473E
:1014300038780BEB401181F80190A9E708EA4012D7
:101440000023002105E000BF80339A4201F104012E
:10145000B9D00BEB03067478022C0DD096F821500E
:10146000022D15D096F84150022D1DD096F86150EE
:10147000022DE9D124E000BFF468BD68AC429CBFF6
:1014800086F80190C6F80C9096F82150022DE9D10B
:10149000F56ABC68A5429CBF86F82190C6F82C90DE
:1014A00096F84150022DE1D1F56CBC68A5429CBF75
:1014B00086F84190C6F84C9096F86150022DC3D141
:1014C000F56EBC68A5429CBF86F86190C6F86C902A
:1014D000BAE7F1EE100A4FF6FF71C0F2C03120EA10
:1014E000010040F04070E1EE100A7047000000007B
:1014F0000000000001020304060708092015000887
:1015000000000020100000003C0200083015000818
:1015100010000020E80600005C0200080000000047
:1015200010000000010000000024F4000100000091
:04000005080001D915
:00000001FF
